:100000000C942A000C94D7090C940A0A0C943D0A0B
:100010000C9447000C9447000C9447000C94470044
:100020000C9447000C9447000C9447000C9428084B
:100030000C9447000C9447000C9447000C94470024
:100040000C9447000C9447000C9447000C94470014
:100050000C94470011241FBECFE5D8E0DEBFCDBF12
:1000600011E0A0E6B0E0E0E8FAE202C005900D92EF
:10007000AC38B107D9F711E0ACE8B1E001C01D928E
:10008000A53AB107E1F70E94F4130C943E150C94C5
:100090000000EF92FF920F931F937B018C0120E0F1
:1000A00030E040E05FE40E94F50388238CF0C80153
:1000B000B70120E030E040E05FE40E94C1010E940F
:1000C00055049B01AC01205030404040504806C0D0
:1000D000C801B7010E9455049B01AC01B901CA01D6
:1000E0001F910F91FF90EF900895A0E0B0E0EBE733
:1000F000F0E00C940715DC012B01FA019C91923081
:1001000008F439C1EB018881823008F433C194309E
:1001100069F4843009F02FC111969C91119789815F
:10012000981709F428C1A0E6B0E025C1843009F48D
:1001300021C18230A9F4923009F01DC19A01AD01AC
:1001400088E0EA010990AE01E90109929E0181501F
:10015000C1F7E201898111969C918923818308C1AD
:10016000923009F407C112962D903C901397EB0141
:100170008A819B811496AD90BD90CD90DC901797AD
:10018000EC80FD800E811F819101281B390BB90184
:1001900037FF04C066277727621B730B6032710537
:1001A0000CF061C0121613066CF537014801062EDB
:1001B00004C096948794779467940A94D2F721E0C8
:1001C00030E040E050E004C0220F331F441F551FB1
:1001D0006A95D2F721503040404050402E213F21B7
:1001E00040235123211531054105510521F021E01E
:1001F00030E040E050E079018A01E628F72808293C
:1002000019293CC0232BD1F1260E371E350146019A
:10021000062E04C096948794779467940A94D2F734
:1002200021E030E040E050E004C0220F331F441FC3
:10023000551F6A95D2F721503040404050402A2146
:100240003B214C215D21211531054105510521F04E
:1002500021E030E040E050E059016A01A628B728CB
:10026000C828D9280BC0821593052CF01C01AA249C
:10027000BB24650103C0EE24FF24870111969C91E5
:10028000D20111968C91981709F445C0992339F041
:10029000A80197012A193B094C095D0906C0A6016E
:1002A00095012E193F09400B510B57FD08C01182D3
:1002B0003382228224833583468357831DC081E0A5
:1002C00081833382228288279927DC01821B930B4A
:1002D000A40BB50B84839583A683B7830DC0220F2F
:1002E000331F441F551F24833583468357838281E0
:1002F000938101979383828324813581468157813D
:10030000DA01C9010197A109B1098F5F9F4FAF4F72
:10031000BF4328F30BC0918333822282EA0CFB1C7B
:100320000C1D1D1DE482F5820683178383E0808304
:10033000248135814681578157FF1AC0C901AA27F8
:1003400097FDA095BA2F81709070A070B0705695EF
:10035000479537952795822B932BA42BB52B848318
:100360009583A683B7838281938101969383828349
:10037000DF0101C0D201CD01CDB7DEB7E2E10C94BF
:100380002315A0E2B0E0E7ECF1E00C9413156983CB
:100390007A838B839C832D833E834F835887E9E048
:1003A000EE2EF12CEC0EFD1ECE010196B7010E943F
:1003B00046068E010F5E1F4FCE010596B8010E94C2
:1003C00046068A8991E089278A8BC701B801AE0168
:1003D000475E5F4F0E9475000E947105A096E6E09F
:1003E0000C942F15A0E2B0E0E8EFF1E00C941315A7
:1003F00069837A838B839C832D833E834F835887C5
:10040000F9E0EF2EF12CEC0EFD1ECE010196B701A6
:100410000E9446068E010F5E1F4FCE010596B80161
:100420000E944606C701B801AE01475E5F4F0E94B9
:1004300075000E947105A096E6E00C942F15A0E2CD
:10044000B0E0E5E2F2E00C94071569837A838B83D0
:100450009C832D833E834F835887CE010196BE0136
:10046000675F7F4F0E944606CE010596BE016F5E14
:100470007F4F0E9446069985923088F089898230A4
:10048000C8F0943019F4823051F404C0843029F457
:10049000923081F480E690E0C6C0923049F420E0CA
:1004A0009A858A89981321E02A87CE010996BBC0D4
:1004B000823049F420E09A858A89981321E02A8BBA
:1004C000CE014196B0C02D843E844F8458886D88FB
:1004D0007E888F88988CEE24FF248701AA24BB2471
:1004E000650140E050E060E070E0E0E0F0E0C10174
:1004F00081709070892BE9F0E60CF71C081D191D1E
:100500009A01AB012A0D3B1D4C1D5D1D80E090E062
:10051000A0E0B0E0E614F7040805190520F481E036
:1005200090E0A0E0B0E0BA01A901480F591F6A1F8E
:100530007B1FAA0CBB1CCC1CDD1C97FE08C081E0F5
:1005400090E0A0E0B0E0A82AB92ACA2ADB2A3196B6
:10055000E032F10549F0660C771C881C991C569412
:10056000479437942794C3CFFA85EA892B893C892D
:100570008B859C85280F391F2E5F3F4F17C0CA01FE
:1005800081709070892B61F016950795F794E79428
:1005900080E090E0A0E0B0E8E82AF92A0A2B1B2BC3
:1005A00076956795579547952F5F3F4F77FDE7CF36
:1005B0000CC0440F551F661F771F17FD4160EE0CDE
:1005C000FF1C001F111F21503040403090E05907A0
:1005D00090E0690790E4790760F32B8F3C8FDB0193
:1005E000CA018F779070A070B07080349105A1051A
:1005F000B10561F447FD0AC0E114F10401051105DC
:1006000029F0405C5F4F6F4F7F4F40781A8EFE1786
:1006100011F081E08A8F4D8F5E8F6F8F78A383E01A
:10062000898FCE0149960E947105A096E2E10C9453
:100630002315A8E1B0E0EFE1F3E00C940F15698316
:100640007A838B839C832D833E834F835887B9E0C5
:10065000EB2EF12CEC0EFD1ECE010196B7010E948F
:1006600046068E010F5E1F4FCE010596B8010E940F
:1006700046062985223008F47EC03989323010F4CC
:10068000B8017CC08A859A8989278A87243011F02D
:10069000223031F4231709F06EC060E670E06EC0BE
:1006A000343039F41D861E861F86188A1C861B86E8
:1006B00004C0323021F484E08987B7015FC02B8504
:1006C0003C858B899C89281B390B3C872B87ED84C3
:1006D000FE840F851889AD88BE88CF88D88CEA142F
:1006E000FB040C051D0540F4EE0CFF1C001F111F40
:1006F000215030403C872B8720E030E040E050E044
:1007000080E090E0A0E0B0E460E070E0EA14FB0478
:100710000C051D0540F0282B392B4A2B5B2BEA18C2
:10072000FB080C091D09B695A79597958795EE0CC2
:10073000FF1C001F111F6F5F7F4F6F31710531F775
:10074000DA01C9018F779070A070B0708034910584
:10075000A105B10561F427FD0AC0E114F10401050A
:10076000110529F0205C3F4F4F4F5F4F20782D87B8
:100770003E874F87588BBE01675F7F4FCB010E943A
:1007800071056896EAE00C942B15A8E1B0E0EBEC5B
:10079000F3E00C94131569837A838B839C832D83F8
:1007A0003E834F83588789E0E82EF12CEC0EFD1E26
:1007B000CE010196B7010E9446068E010F5E1F4FC3
:1007C000CE010596B8010E9446068985823040F028
:1007D0008989823028F0C701B8010E94BE0601C095
:1007E0008FEF6896E6E00C942F15A8E1B0E0EBEFF0
:1007F000F3E00C94131569837A838B839C832D8398
:100800003E834F83588789E0E82EF12CEC0EFD1EC5
:10081000CE010196B7010E9446068E010F5E1F4F62
:10082000CE010596B8010E9446068985823040F0C7
:100830008989823028F0C701B8010E94BE0601C034
:100840008FEF6896E6E00C942F15A8E1B0E0EBE29C
:10085000F4E00C94131569837A838B839C832D8336
:100860003E834F83588789E0E82EF12CEC0EFD1E65
:10087000CE010196B7010E9446068E010F5E1F4F02
:10088000CE010596B8010E9446068985823040F067
:100890008989823028F0C701B8010E94BE0601C0D4
:1008A00081E06896E6E00C942F15ACE0B0E0EBE553
:1008B000F4E00C94171569837A838B839C83CE01B3
:1008C0000196BE016B5F7F4F0E9446068D8182308C
:1008D00061F1823050F1843021F48E81882351F10E
:1008E0002EC02F81388537FD20C06E812F31310514
:1008F0001CF06623F9F023C08EE190E0821B930B7D
:1009000029853A854B855C8504C056954795379572
:1009100027958A95D2F76623B1F05095409530958A
:1009200021953F4F4F4F5F4F0EC020E030E040E039
:1009300050E009C02FEF3FEF4FEF5FE704C020E02A
:1009400030E040E050E8B901CA012C96E2E00C9496
:100950003315A8E0B0E0EFEAF4E00C940F157B014A
:100960008C01611571058105910519F482E0898377
:1009700060C083E089838EE1C82ED12CDC82CB82DB
:10098000ED82FE820F831887C801B7010E942205FD
:10099000FC013197F7FF3BC0222733272E1B3F0B6B
:1009A00057016801022E04C0D694C794B794A79447
:1009B0000A94D2F740E050E060E070E081E090E01F
:1009C000A0E0B0E004C0880F991FAA1FBB1F2A95A2
:1009D000D2F70197A109B1098E219F21A023B1234C
:1009E0000097A105B10521F041E050E060E070E022
:1009F0004A295B296C297D294D835E836F83788723
:100A00008EE190E08E1B9F0B9C838B8312C03097EE
:100A100081F00E2E04C0EE0CFF1C001F111F0A9463
:100A2000D2F7ED82FE820F831887CE1ADF0ADC82AE
:100A3000CB821A82CE0101960E9471052896EAE0C7
:100A40000C942B15EF92FF920F931F937B018C0157
:100A500080E0E81680E0F80681E0080780E01807EB
:100A600088F48FEFE816F1040105110531F028F044
:100A700088E090E0A0E0B0E017C080E090E0A0E067
:100A8000B0E012C080E0E81680E0F80680E00807D9
:100A900081E0180728F088E190E0A0E0B0E004C011
:100AA00080E190E0A0E0B0E020E230E040E050E003
:100AB000281B390B4A0B5B0B04C016950795F7945E
:100AC000E7948A95D2F7F701E859FF4F8081281BF8
:100AD000310941095109C9011F910F91FF90EF9010
:100AE0000895DF92EF92FF920F931F93FC01E48031
:100AF000F58006811781D1808081823048F480E0C2
:100B000090E0A0E1B0E0E82AF92A0A2B1B2BA5C04F
:100B1000843009F49FC0823021F4EE24FF24870141
:100B200005C0E114F1040105110519F4E0E0F0E05D
:100B300096C0628173819FEF623879070CF05BC0C9
:100B400022E83FEF261B370B2A3131052CF020E03D
:100B500030E040E050E02AC0B801A701022E04C0F6
:100B600076956795579547950A94D2F781E090E07E
:100B7000A0E0B0E004C0880F991FAA1FBB1F2A95F0
:100B8000D2F70197A109B1098E219F21A023B1239A
:100B90000097A105B10521F081E090E0A0E0B0E070
:100BA0009A01AB01282B392B4A2B5B2BDA01C901A7
:100BB0008F779070A070B07080349105A105B10559
:100BC00039F427FF09C0205C3F4F4F4F5F4F04C0EF
:100BD000215C3F4F4F4F5F4FE0E0F0E02030A0E05E
:100BE0003A07A0E04A07A0E45A0710F0E1E0F0E07D
:100BF00079018A0127C06038710564F5FB01E1586D
:100C0000FF4FD801C7018F779070A070B07080340B
:100C10009105A105B10539F4E7FE0DC080E490E02F
:100C2000A0E0B0E004C08FE390E0A0E0B0E0E80E08
:100C3000F91E0A1F1B1F17FF05C016950795F7948D
:100C4000E794319687E016950795F794E7948A958F
:100C5000D1F705C0EE24FF248701EFEFF0E06E2FFF
:100C6000679566276795902F9F77D794DD24D79453
:100C70008E2F8695492F462B582F5D29B701CA0123
:100C80001F910F91FF90EF90DF900895FC01DB0121
:100C9000408151812281622F6F7770E0221F2227CD
:100CA000221F9381892F880F822B282F30E0991FD4
:100CB0009927991F11969C93119721153105A9F534
:100CC000411551056105710511F482E037C082E8D4
:100CD0009FEF13969C938E9312979A01AB0167E056
:100CE000220F331F441F551F6A95D1F783E08C9361
:100CF0000DC0220F331F441F551F12968D919C91DA
:100D00001397019713969C938E931297203080E04F
:100D1000380780E0480780E4580758F314962D936D
:100D20003D934D935C93179708952F3F310579F4C8
:100D3000411551056105710519F484E08C930895FE
:100D400064FF03C081E08C9312C01C9210C02F5727
:100D5000304013963C932E93129783E08C9387E058
:100D6000440F551F661F771F8A95D1F7706414963C
:100D70004D935D936D937C93179708951F93DC01BA
:100D8000FB019C91923008F447C08081823008F4C6
:100D900043C0943051F411961C91843099F58181AF
:100DA000682F70E0611B71093FC0843021F09230E0
:100DB00031F48230B9F18181882389F12DC01196F7
:100DC0001C9111978230F1F081811817D9F4129695
:100DD0002D913C911397828193818217930794F010
:100DE00028173907BCF014968D919D910D90BC91F8
:100DF000A02D2481358146815781281739074A075C
:100E00005B0718F4112341F00AC082179307A40767
:100E1000B50740F4112319F061E070E005C06FEFF1
:100E20007FEF02C060E070E0CB011F910895DF9377
:100E3000CF93CDB7DEB7E5E4F0E0808180648083B6
:100E4000E5E4F0E0808188608083E5E4F0E0808183
:100E50008F7C80628083CF91DF910895DF93CF9361
:100E6000CDB7DEB7E5E4F0E08081887F8083CF9165
:100E7000DF910895DF93CF93CDB7DEB7E5E4F0E0DF
:100E80008081887F85608083CF91DF910895DF9393
:100E9000CF930F92CDB7DEB78983E4E4F0E0898188
:100EA00080830F90CF91DF910895DF93CF93CDB7DB
:100EB000DEB7E4E4F0E08081CF91DF9108950F93F5
:100EC0001F93DF93CF930F92CDB7DEB7898303E4EF
:100ED00010E08981882F90E0A0E0B0E02FEF30E0B3
:100EE00040E050E0BC01CD010E94C614DC01CB0102
:100EF00024E630E040E050E0BC01CD010E94E51462
:100F0000DA01C901F80180830F90CF91DF911F9121
:100F10000F910895DF93CF93CDB7DEB783E065E0FF
:100F200041E00E94F20AAFE4B0E0EFE4F0E080813B
:100F30008E7F8C93AFE4B0E0EFE4F0E080818260DC
:100F40008C93AEE4B0E0EEE4F0E0808188608C93B6
:100F5000AEE4B0E0EEE4F0E0808180618C93AFE439
:100F6000B0E0EFE4F0E0808180688C93AFE4B0E023
:100F7000EFE4F0E080818F7B8C93CF91DF91089537
:100F8000DF93CF93CDB7DEB7E6E4F0E080E49CE9F1
:100F900091838083CF91DF910895DF93CF93CDB775
:100FA000DEB7EAE4F0E084E297E791838083CF91B3
:100FB000DF910895DF93CF93CDB7DEB7AEE4B0E015
:100FC000EEE4F0E080818E7F8C93AEE4B0E0EEE45E
:100FD000F0E0808182608C93AEE4B0E0EEE4F0E07B
:100FE00080818B7F8C93CF91DF910895DF93CF9396
:100FF000CDB7DEB7AEE4B0E0EEE4F0E080818E7F06
:101000008C93AEE4B0E0EEE4F0E080818D7F8C93D1
:10101000AEE4B0E0EEE4F0E080818B7F8C93CF9182
:10102000DF910895DF93CF9300D0CDB7DEB79A83D9
:10103000898389819A81009731F089819A8190937F
:101040008D0180938C010F900F90CF91DF910895C7
:101050001F920F920FB60F9211242F933F934F932D
:101060005F936F937F938F939F93AF93BF93EF9310
:10107000FF93DF93CF93CDB7DEB7E0918C01F09172
:101080008D010995CF91DF91FF91EF91BF91AF91C4
:101090009F918F917F916F915F914F913F912F9190
:1010A0000F900FBE0F901F901895DF93CF93CDB781
:1010B000DEB7E3E5F0E080818F7B8083E3E5F0E05D
:1010C0008081877F8083E2E5F0E01082E9E5F0E04F
:1010D000808181608083CF91DF910895DF93CF93EA
:1010E000CDB7DEB7E3E5F0E08081887F8083CF91E4
:1010F000DF910895DF93CF93CDB7DEB7E3E5F0E05E
:101100008081887F83608083CF91DF910895DF9312
:10111000CF930F92CDB7DEB78983E2E5F0E0898106
:1011200080830F90CF91DF910895DF93CF93CDB758
:10113000DEB7E2E5F0E08081CF91DF910895DF93A3
:10114000CF930F92CDB7DEB789830F90CF91DF9108
:101150000895DF93CF93CDB7DEB7E1E4F0E080816F
:1011600088608083CF91DF910895DF93CF93CDB7CF
:10117000DEB7E1E4F0E088E18083E1E4F0E0808143
:10118000877F8083CF91DF910895DF93CF930F9274
:10119000CDB7DEB78983E1E4F0E089818770982FCD
:1011A00097708081887F892B80830F90CF91DF910A
:1011B0000895DF93CF93CDB7DEB7AFE5B0E0EFE5AD
:1011C000F0E0808180688C93CF91DF910895DF9368
:1011D000CF93CDB7DEB7AFE5B0E0EFE5F0E08081CB
:1011E0008F778C93CF91DF910895DF93CF9300D0C9
:1011F00000D0CDB7DEB789836A838981282F30E09C
:101200003C832B838B819C8181309105D9F12B818B
:101210003C812230310509F465C08B819C810097A7
:1012200009F081C083E062E040E00E94F20A8A8116
:10123000882379F4A5E5B0E0E5E5F0E080818E7FD4
:101240008C93A5E5B0E0E5E5F0E0808182608C93C9
:1012500011C08A81813071F4A5E5B0E0E5E5F0E0E8
:10126000808181608C93A5E5B0E0E5E5F0E08081C8
:1012700082608C93ABE5B0E0EBE5F0E080818064C8
:101280008C9351C083E063E040E00E94F20A8A81BF
:10129000882379F4A5E5B0E0E5E5F0E080818B7F77
:1012A0008C93A5E5B0E0E5E5F0E0808188608C9363
:1012B00011C08A81813071F4A5E5B0E0E5E5F0E088
:1012C000808184608C93A5E5B0E0E5E5F0E0808165
:1012D00088608C93ABE5B0E0EBE5F0E0808180685E
:1012E0008C9321C081E062E040E00E94F20A8A8192
:1012F000882341F4A4E5B0E0E4E5F0E080818F7B51
:101300008C930AC08A81813039F4A4E5B0E0E4E529
:10131000F0E0808180648C93ABE5B0E0EBE5F0E039
:10132000808180628C930F900F900F900F90CF91DF
:10133000DF910895DF93CF9300D000D00F92CDB707
:10134000DEB79A8389836B8389819A81009739F10B
:101350008B81282F30E03D832C838C819D818130CF
:10136000910581F02C813D812230310591F08C81F5
:101370009D810097A1F489819A8190938F01809338
:101380008E010DC089819A81909391018093900183
:1013900006C089819A8190939301809392010F9066
:1013A0000F900F900F900F90CF91DF9108951F92A3
:1013B0000F920FB60F9211242F933F934F935F9389
:1013C0006F937F938F939F93AF93BF93EF93FF930D
:1013D000DF93CF93CDB7DEB780918E0190918F01CF
:1013E000009729F0E0918E01F0918F010995CF913E
:1013F000DF91FF91EF91BF91AF919F918F917F917D
:101400006F915F914F913F912F910F900FBE0F9071
:101410001F9018951F920F920FB60F9211242F93C1
:101420003F934F935F936F937F938F939F93AF936C
:10143000BF93EF93FF93DF93CF93CDB7DEB7809148
:10144000900190919101009729F0E0919001F09125
:1014500091010995CF91DF91FF91EF91BF91AF91EC
:101460009F918F917F916F915F914F913F912F91BC
:101470000F900FBE0F901F9018951F920F920FB6EE
:101480000F9211242F933F934F935F936F937F930A
:101490008F939F93AF93BF93EF93FF93DF93CF937C
:1014A000CDB7DEB78091920190919301009729F01A
:1014B000E0919201F09193010995CF91DF91FF9115
:1014C000EF91BF91AF919F918F917F916F915F91BC
:1014D0004F913F912F910F900FBE0F901F90189535
:1014E000DF93CF9300D000D0CDB7DEB789836A8376
:1014F0008981282F30E03C832B838B819C81813034
:101500009105D1F02B813C81223031052CF48B8167
:101510009C81009761F01EC02B813C8122303105F7
:1015200081F08B819C818330910581F013C0EAE3C7
:10153000F0E08A8180830EC0E7E3F0E08A81808357
:1015400009C0E4E3F0E08A81808304C0E1E3F0E0D5
:101550008A8180830F900F900F900F90CF91DF9131
:101560000895DF93CF9300D000D0CDB7DEB7898345
:101570006A838981282F30E03C832B838B819C8177
:1015800081309105D1F02B813C81223031052CF442
:101590008B819C81009761F01EC02B813C812230A1
:1015A000310581F08B819C818330910581F013C0DE
:1015B000EBE3F0E08A8180830EC0E8E3F0E08A810B
:1015C000808309C0E5E3F0E08A81808304C0E2E320
:1015D000F0E08A8180830F900F900F900F90CF9151
:1015E000DF910895DF93CF93CDB7DEB727970FB67E
:1015F000F894DEBF0FBECDBF89836A834B838A8197
:10160000883008F0EAC08B81813009F06FC0898191
:10161000282F30E03F832E838E819F81813091057A
:1016200049F12E813F81223031052CF48E819F813A
:10163000009761F0D2C02E813F812230310571F1D7
:101640008E819F8183309105E9F1C7C0AAE3B0E0A4
:10165000EAE3F0E08081482F8A81282F30E081E0A2
:1016600090E0022E02C0880F991F0A94E2F7842BA3
:101670008C93B3C0A7E3B0E0E7E3F0E08081482FAC
:101680008A81282F30E081E090E0022E02C0880F8E
:10169000991F0A94E2F7842B8C939FC0A4E3B0E0D7
:1016A000E4E3F0E08081482F8A81282F30E081E058
:1016B00090E0022E02C0880F991F0A94E2F7842B53
:1016C0008C938BC0A1E3B0E0E1E3F0E08081482F90
:1016D0008A81282F30E081E090E0022E02C0880F3E
:1016E000991F0A94E2F7842B8C9377C08B8188230F
:1016F00009F073C08981282F30E03D832C838C81D1
:101700009D818130910559F12C813D812230310537
:101710002CF48C819D81009769F05FC02C813D8104
:101720002230310589F18C819D818330910509F446
:1017300040C053C0AAE3B0E0EAE3F0E08081482F64
:101740008A81282F30E081E090E0022E02C0880FCD
:10175000991F0A94E2F7809584238C933EC0A7E3F7
:10176000B0E0E7E3F0E08081482F8A81282F30E065
:1017700081E090E0022E02C0880F991F0A94E2F7E0
:10178000809584238C9329C0A4E3B0E0E4E3F0E0E7
:101790008081482F8A81282F30E081E090E0022E5E
:1017A00002C0880F991F0A94E2F7809584238C93D6
:1017B00014C0A1E3B0E0E1E3F0E08081482F8A812A
:1017C000282F30E081E090E0022E02C0880F991FA0
:1017D0000A94E2F7809584238C9327960FB6F894A9
:1017E000DEBF0FBECDBFCF91DF910895DF93CF93C2
:1017F000CDB7DEB727970FB6F894DEBF0FBECDBFCB
:1018000089836A834B838A81883008F0EAC08B81A0
:10181000813009F06FC08981282F30E03F832E830B
:101820008E819F818130910549F12E813F81223047
:1018300031052CF48E819F81009761F0D2C02E81FA
:101840003F812230310571F18E819F818330910576
:10185000E9F1C7C0ABE3B0E0EBE3F0E08081482FF3
:101860008A81282F30E081E090E0022E02C0880FAC
:10187000991F0A94E2F7842B8C93B3C0A8E3B0E0DD
:10188000E8E3F0E08081482F8A81282F30E081E072
:1018900090E0022E02C0880F991F0A94E2F7842B71
:1018A0008C939FC0A5E3B0E0E5E3F0E08081482F92
:1018B0008A81282F30E081E090E0022E02C0880F5C
:1018C000991F0A94E2F7842B8C938BC0A2E3B0E0BB
:1018D000E2E3F0E08081482F8A81282F30E081E028
:1018E00090E0022E02C0880F991F0A94E2F7842B21
:1018F0008C9377C08B81882309F073C08981282F4E
:1019000030E03D832C838C819D818130910559F19C
:101910002C813D81223031052CF48C819D810097F2
:1019200069F05FC02C813D812230310589F18C81C5
:101930009D818330910509F440C053C0ABE3B0E012
:10194000EBE3F0E08081482F8A81282F30E081E0AE
:1019500090E0022E02C0880F991F0A94E2F780954A
:1019600084238C933EC0A8E3B0E0E8E3F0E08081FC
:10197000482F8A81282F30E081E090E0022E02C0BB
:10198000880F991F0A94E2F7809584238C9329C0CD
:10199000A5E3B0E0E5E3F0E08081482F8A81282FBD
:1019A00030E081E090E0022E02C0880F991F0A9477
:1019B000E2F7809584238C9314C0A2E3B0E0E2E3C5
:1019C000F0E08081482F8A81282F30E081E090E08C
:1019D000022E02C0880F991F0A94E2F78095842393
:1019E0008C9327960FB6F894DEBF0FBECDBFCF9174
:1019F000DF910895DF93CF9300D000D00F92CDB741
:101A0000DEB78A836B838B81883008F067C08A8158
:101A1000282F30E03D832C834C815D81413051057E
:101A200041F18C819D818230910534F42C813D817E
:101A30002115310561F052C04C815D814230510564
:101A400051F18C819D8183309105B9F147C0E9E363
:101A5000F0E08081282F30E08B81882F90E0A90171
:101A600002C0559547958A95E2F7CA01817089832E
:101A700035C0E6E3F0E08081282F30E08B81882FAD
:101A800090E0A90102C0559547958A95E2F7CA01F1
:101A90008170898323C0E3E3F0E08081282F30E068
:101AA0008B81882F90E0A90102C0559547958A95B2
:101AB000E2F7CA018170898311C0E0E3F0E0808120
:101AC000282F30E08B81882F90E0A90102C0559526
:101AD00047958A95E2F7CA018170898389810F90C1
:101AE0000F900F900F900F90CF91DF910895DF939B
:101AF000CF9300D000D0CDB7DEB789836A838A81C7
:101B0000883008F06EC08981282F30E03C832B8319
:101B10008B819C818130910549F12B813C81223060
:101B200031052CF48B819C81009761F05AC02B8188
:101B30003C812230310571F18B819C81833091058C
:101B4000E9F14FC0ABE3B0E0EBE3F0E08081482F78
:101B50008A81282F30E081E090E0022E02C0880FB9
:101B6000991F0A94E2F784278C933BC0A8E3B0E066
:101B7000E8E3F0E08081482F8A81282F30E081E07F
:101B800090E0022E02C0880F991F0A94E2F7842782
:101B90008C9327C0A5E3B0E0E5E3F0E08081482F17
:101BA0008A81282F30E081E090E0022E02C0880F69
:101BB000991F0A94E2F784278C9313C0A2E3B0E044
:101BC000E2E3F0E08081482F8A81282F30E081E035
:101BD00090E0022E02C0880F991F0A94E2F7842732
:101BE0008C930F900F900F900F90CF91DF910895ED
:101BF000DF93CF93CDB7DEB780919C0190919D018B
:101C0000A0919E01B0919F010196A11DB11D8093ED
:101C10009C0190939D01A0939E01B0939F01CF9151
:101C2000DF910895DF93CF93CDB7DEB78091A40104
:101C30008130A1F480E00E9487080E947A08109207
:101C40009C0110929D0110929E0110929F0180E0D4
:101C500060E00E94F5081092A40170C08091A40178
:101C6000882309F06BC00E946E080E949508882F97
:101C700090E0A0E0B0E08093A0019093A101A09338
:101C8000A201B093A30180919C0190919D01A0912C
:101C90009E01B0919F012227382F492F5A2F809102
:101CA000A0019091A101A091A201B091A301820F86
:101CB000931FA41FB51FBC01CD010E94A904DC0124
:101CC000CB01209168013091690140916A015091E6
:101CD0006B01BC01CD010E941F02DC01CB0180938E
:101CE000940190939501A0939601B09397018091F0
:101CF000940190919501A0919601B0919701BC013A
:101D0000CD0120E030E048E851E40E941F02DC01F0
:101D1000CB01BC01CD010E944900DC01CB018093C5
:101D2000980190939901A0939A01B0939B0180E050
:101D300061E00E94F50881E08093A401CF91DF91DA
:101D40000895DF93CF93CDB7DEB783E063E041E042
:101D50000E94F20A83E062E040E00E94F20A0E94E0
:101D6000550888EF9DE00E94120880E061E00E9423
:101D7000F50882E19EE060E00E949A09CF91DF9130
:101D80000895DF93CF93CDB7DEB768970FB6F89479
:101D9000DEBF0FBECDBF83E063E041E00E94F60BE3
:101DA00080E090E0A0E3B1E48D8B9E8BAF8BB88F89
:101DB0006D897E898F89988D2BEA3AEA4AEA50E448
:101DC0000E941F02DC01CB01898B9A8BAB8BBC8BF1
:101DD00069897A898B899C8920E030E040E85FE35B
:101DE0000E94250488231CF481E0888B91C06989B6
:101DF0007A898B899C8920E030E04FE753E40E9488
:101E0000C50318160CF07BC06D897E898F89988D6B
:101E100020E030E04AE754E40E941903DC01CB01E2
:101E20008C879D87AE87BF876C857D858E859F85D6
:101E300020E030E04AE755E40E941F02DC01CB01BC
:101E400088879987AA87BB87688579858A859B85D6
:101E500020E030E040E85FE30E94250488232CF472
:101E600081E090E09F838E833FC0688579858A8575
:101E70009B8520E03FEF4FE757E40E94C50318160B
:101E80004CF56C857D858E859F8520E030E040E2B5
:101E900051E40E941F02DC01CB01BC01CD010E9474
:101EA0004900DC01CB019F838E830FC080E991E064
:101EB0009D838C838C819D810197F1F79D838C8319
:101EC0008E819F8101979F838E838E819F81009752
:101ED00069F724C0688579858A859B850E944900B9
:101EE000DC01CB019F838E838E819F819B838A83BC
:101EF0008A819B810197F1F79B838A830FC069894F
:101F00007A898B899C890E944900DC01CB01888BEE
:101F10008889898389818A95F1F7898383E063E0E1
:101F200040E00E94F60B68960FB6F894DEBF0FBE35
:101F3000CDBFCF91DF910895DF93CF93CDB7DEB7BB
:101F40008091980190919901A0919A01B0919B0183
:101F5000BC01CD01CF91DF910895DF93CF93CDB731
:101F6000DEB783E067E041E00E94F20A80E064E0CF
:101F700041E00E94F20A80E065E041E00E94F20A3E
:101F800080E066E041E00E94F20A80E067E041E024
:101F90000E94F20A0E94170780E060E00E94D50FBD
:101FA0000E94D908CF91DF910895DF93CF9300D09D
:101FB00000D0CDB7DEB789836A838981282F30E0CE
:101FC0003C832B838B819C818230910509F450C026
:101FD0002B813C812330310554F48B819C81009707
:101FE00099F02B813C812130310529F197C08B81FB
:101FF0009C818330910509F458C02B813C812430A9
:10200000310509F46FC08AC00E942E0780E064E0A9
:1020100040E00E94F60B80E065E040E00E94F60B95
:1020200080E066E040E00E94F60B80E067E040E080
:102030000E94F60B73C080E00E9447078A810E94CD
:102040005F070E943A0780E064E041E00E94F60BDF
:1020500080E065E040E00E94F60B80E066E041E051
:102060000E94F60B80E067E040E00E94F60B56C04D
:1020700080E00E9447078A810E945F070E943A071A
:1020800080E064E040E00E94F60B80E065E041E023
:102090000E94F60B80E066E040E00E94F60B80E0D4
:1020A00067E041E00E94F60B39C080E00E944707DC
:1020B0008A810E945F070E943A0780E064E041E065
:1020C0000E94F60B80E065E040E00E94F60B80E0A5
:1020D00066E040E00E94F60B80E067E040E00E948E
:1020E000F60B1CC080E00E9447078A810E945F07B0
:1020F0000E943A0780E064E040E00E94F60B80E036
:1021000065E040E00E94F60B80E066E041E00E945E
:10211000F60B80E067E040E00E94F60B0F900F9016
:102120000F900F90CF91DF910895DF93CF93CDB7AC
:10213000DEB72E970FB6F894DEBF0FBECDBF80E09E
:1021400090E0A0EFB1E48B879C87AD87BE876B855D
:102150007C858D859E8520E030E04AE755E40E942D
:102160001F02DC01CB018F839887A987BA876F8113
:10217000788589859A8520E030E040E85FE30E9419
:10218000250488232CF481E090E09E838D833FC05A
:102190006F81788589859A8520E03FEF4FE757E486
:1021A0000E94C50318164CF56B857C858D859E8530
:1021B00020E030E040E251E40E941F02DC01CB014C
:1021C000BC01CD010E944900DC01CB019E838D83BF
:1021D0000FC080E991E09C838B838B819C81019768
:1021E000F1F79C838B838D819E8101979E838D83E4
:1021F0008D819E81009769F714C06F8178858985EC
:102200009A850E944900DC01CB019E838D838D81DC
:102210009E819A83898389819A810197F1F79A83B4
:10222000898382E060E041E00E94F20A82E061E09E
:1022300041E00E94F20A82E062E041E00E94F20A7C
:1022400082E063E041E00E94F20A82E064E041E063
:102250000E94F20A82E065E041E00E94F20A82E018
:102260000E94B61288E20E94B6128CE00E94B6125A
:1022700081E00E94B61286E00E94B6122E960FB63A
:10228000F894DEBF0FBECDBFCF91DF910895DF93ED
:10229000CF93CDB7DEB76D970FB6F894DEBF0FBE04
:1022A000CDBF8D8F8D8D982F991F9927991F82E013
:1022B00065E0492F0E94F60B8D8D82958695869557
:1022C0008370982F917082E064E0492F0E94F60B92
:1022D0008D8D829586958770982F917082E063E04E
:1022E000492F0E94F60B8D8D82958F70982F9170DB
:1022F00082E062E0492F0E94F60B82E061E041E05B
:102300000E94F60B80E090E0A0E0B0E4898F9A8F05
:10231000AB8FBC8F698D7A8D8B8D9C8D20E030E0EA
:102320004AE755E40E941F02DC01CB018D8B9E8B96
:10233000AF8BB88F6D897E898F89988D20E030E0D2
:1023400040E85FE30E94250488232CF481E090E0BC
:102350009C8B8B8B3FC06D897E898F89988D20E007
:102360003FEF4FE757E40E94C50318164CF5698DFF
:102370007A8D8B8D9C8D20E030E040E251E40E940C
:102380001F02DC01CB01BC01CD010E944900DC0130
:10239000CB019C8B8B8B0FC080E991E09A8B898B52
:1023A00089899A890197F1F79A8B898B8B899C8906
:1023B00001979C8B8B8B8B899C89009769F714C044
:1023C0006D897E898F89988D0E944900DC01CB013F
:1023D0009C8B8B8B8B899C89988B8F878F85988919
:1023E0000197F1F7988B8F8782E061E040E00E94CF
:1023F000F60B8D8D869586958695982F917082E047
:1024000065E0492F0E94F60B8D8D86958695982F55
:10241000917082E064E0492F0E94F60B8D8D8695C5
:10242000982F917082E063E0492F0E94F60B8D8D0A
:10243000982F917082E062E0492F0E94F60B82E0B3
:1024400061E041E00E94F60B80E090E0A0E0B0E4A3
:102450008B879C87AD87BE876B857C858D859E85A8
:1024600020E030E04AE755E40E941F02DC01CB0186
:102470008F839887A987BA876F81788589859A85A0
:1024800020E030E040E85FE30E94250488232CF43C
:1024900081E090E09E838D833FC06F817885898540
:1024A0009A8520E03FEF4FE757E40E94C5031816D6
:1024B0004CF56B857C858D859E8520E030E040E283
:1024C00051E40E941F02DC01CB01BC01CD010E943E
:1024D0004900DC01CB019E838D830FC080E991E030
:1024E0009C838B838B819C810197F1F79C838B83E9
:1024F0008D819E8101979E838D838D819E81009722
:1025000069F714C06F81788589859A850E94490092
:10251000DC01CB019E838D838D819E819A8389838B
:1025200089819A810197F1F79A83898382E061E03A
:1025300040E00E94F60B6D960FB6F894DEBF0FBE1A
:10254000CDBFCF91DF910895DF93CF930F92CDB799
:10255000DEB7898382E060E041E00E94F60B89816A
:102560000E9447110F90CF91DF910895DF93CF9391
:102570000F92CDB7DEB7898382E060E040E00E9431
:10258000F60B89810E9447110F90CF91DF9108953A
:10259000DF93CF9300D000D0CDB7DEB79C838B8381
:1025A0001A8219820FC02B813C8189819A81F9019D
:1025B000E80FF91F80810E94A41289819A810196F7
:1025C0009A8389832B813C8189819A81F901E80F63
:1025D000F91F8081882339F70F900F900F900F908B
:1025E000CF91DF910895DF93CF93CDB7DEB72797D3
:1025F0000FB6F894DEBF0FBECDBF8E836F831A82F5
:1026000080E48B8384E18C8384E58D838E81282F05
:1026100030E0CE010296FC01E20FF31F90818F8122
:10262000890F8058898389810E94B61227960FB638
:10263000F894DEBF0FBECDBFCF91DF910895DF9339
:10264000CF93CDB7DEB781E00E94B612CF91DF9174
:102650000895DF93CF930F92CDB7DEB78983898139
:102660008C3121F48CE10E94B61206C08981883138
:1026700019F488E10E94B6120F90CF91DF9108956E
:102680000F931F93DF93CF93CDB7DEB763970FB64A
:10269000F894DEBF0FBECDBF688B798B8A8B9B8B86
:1026A00088899989AA89BB898A839B83AC83BD83E6
:1026B00019828981082F10E08A819B81AC81BD81BC
:1026C0002AE030E040E050E0BC01CD010E94E5147A
:1026D000DC01CB01282F205DCE010696FC01E00F26
:1026E000F11F20838A819B81AC81BD812AE030E08B
:1026F00040E050E0BC01CD010E94E514DA01C901BF
:102700008A839B83AC83BD8389818F5F89838A8120
:102710009B81AC81BD810097A105B10551F611C027
:102720008981882F90E09C0121503040CE0106968F
:10273000FC01E20FF31F80810E94A4128981815065
:1027400089838981882361F763960FB6F894DEBF89
:102750000FBECDBFCF91DF911F910F910895DF93F1
:10276000CF9300D000D00F92CDB7DEB79C838B8380
:102770006D8319828D81882F90E00896880F991FAC
:10278000880F991F880F991F8A838A810E94B61229
:1027900019820EC08981282F30E08B819C81FC0139
:1027A000E20FF31F80810E94A41289818F5F8983C9
:1027B0008981883078F380E060E00E94F3120F9006
:1027C0000F900F900F900F90CF91DF910895DF93AE
:1027D000CF930F92CDB7DEB7898389810E94A4126F
:1027E0000F90CF91DF910895DF93CF93CDB7DEB7F0
:1027F000EC970FB6F894DEBF0FBECDBF0E949510C8
:102800001886CE0109969AA789A7E4E8F1E0FCA70B
:10281000EBA7F8E0FDA7EBA5FCA500808BA59CA588
:1028200001969CA78BA7E9A5FAA5008289A59AA580
:1028300001969AA789A79DA591509DA7EDA5EE2386
:1028400051F781E08F83CE0141969FA78EA7ECE7D9
:10285000F1E0F9ABE8ABF8E0FAABE8A9F9A9008040
:1028600088A999A9019699AB88ABEEA5FFA500822E
:102870008EA59FA501969FA78EA79AA991509AAB66
:10288000EAA9EE2351F782E08E83CE0149969CABF4
:102890008BABE4E7F1E0FEABEDABF8E0FFABEDA90D
:1028A000FEA900808DA99EA901969EAB8DABEBA9D8
:1028B000FCA900828BA99CA901969CAB8BAB9FA91C
:1028C00091509FABEFA9EE2351F783E08D83CE01AA
:1028D000819699AF88AFECE6F1E0FBAFEAAFF8E0A4
:1028E000FCAFEAADFBAD00808AAD9BAD01969BAF1E
:1028F0008AAFE8ADF9AD008288AD99AD019699AF88
:1029000088AF9CAD91509CAFECADEE2351F7CE015A
:10291000099668850E94AF13CE0141966F810E948F
:10292000AF13CE0149966E810E94AF13CE018196FE
:102930006D810E94AF130E94AD0F0E94A10E1982FB
:102940001A821B821C820E94C10E81E062E30E94F7
:10295000D50F19821A821B821C820E949C0FDC01F7
:10296000CB0189839A83AB83BC8389819A81AB81B4
:10297000BC810097A105B10531F389819A81AB81B2
:10298000BC81BC01CD010E944013DDCF629FD0010C
:10299000739FF001829FE00DF11D649FE00DF11D1A
:1029A000929FF00D839FF00D749FF00D659FF00DC9
:1029B0009927729FB00DE11DF91F639FB00DE11DB6
:1029C000F91FBD01CF0111240895A1E21A2EAA1BFF
:1029D000BB1BFD010DC0AA1FBB1FEE1FFF1FA217CF
:1029E000B307E407F50720F0A21BB30BE40BF50BCC
:1029F000661F771F881F991F1A9469F76095709555
:102A0000809590959B01AC01BD01CF0108952F9257
:102A10003F924F925F926F927F928F929F92AF926E
:102A2000BF92CF92DF92EF92FF920F931F93CF93BB
:102A3000DF93CDB7DEB7CA1BDB0B0FB6F894DEBF52
:102A40000FBECDBF09942A88398848885F846E8478
:102A50007D848C849B84AA84B984C884DF80EE80C2
:102A6000FD800C811B81AA81B981CE0FD11D0FB6CB
:102A7000F894DEBF0FBECDBFED010895F894FFCFEF
:102A80000000000000000000000102020303030335
:102A900004040404040404040505050505050505EE
:102AA00005050505050505050606060606060606CE
:102AB00006060606060606060606060606060606B6
:102AC000060606060606060607070707070707079E
:102AD0000707070707070707070707070707070786
:102AE0000707070707070707070707070707070776
:102AF0000707070707070707070707070707070766
:102B0000070707070707070708080808080808084D
:102B10000808080808080808080808080808080835
:102B20000808080808080808080808080808080825
:102B30000808080808080808080808080808080815
:102B40000808080808080808080808080808080805
:102B500008080808080808080808080808080808F5
:102B600008080808080808080808080808080808E5
:102B700008080808080808080808080808080808D5
:102B800008080808080808086F12833B0204081F99
:102B90001F0804020804021F1F020408040404049E
:0C2BA000041F0E04040E1F0404040404AF
:00000001FF
